{
  "_format": "hh-sol-artifact-1",
  "contractName": "B",
  "sourceName": "contracts/B.sol",
  "abi": [
    {
      "inputs": [],
      "stateMutability": "payable",
      "type": "constructor"
    },
    {
      "inputs": [
        {
          "internalType": "address payable",
          "name": "Addr",
          "type": "address"
        }
      ],
      "name": "sendEtherfromCallertoAnother",
      "outputs": [],
      "stateMutability": "payable",
      "type": "function"
    },
    {
      "inputs": [
        {
          "internalType": "address payable",
          "name": "contractAddr",
          "type": "address"
        },
        {
          "internalType": "uint256",
          "name": "amount",
          "type": "uint256"
        }
      ],
      "name": "sendEtherfromContract",
      "outputs": [],
      "stateMutability": "payable",
      "type": "function"
    },
    {
      "inputs": [
        {
          "internalType": "address payable",
          "name": "contractAddr",
          "type": "address"
        }
      ],
      "name": "sendEthertoContract",
      "outputs": [],
      "stateMutability": "payable",
      "type": "function"
    }
  ],
  "bytecode": "0x6080604052610241806100136000396000f3fe6080604052600436106100345760003560e01c806309be6005146100395780635ad2416c1461004e578063aaa15fd914610039575b600080fd5b61004c6100473660046101bf565b610061565b005b61004c61005c3660046101e1565b610104565b6000816001600160a01b03163460405160006040518083038185875af1925050503d80600081146100ae576040519150601f19603f3d011682016040523d82523d6000602084013e6100b3565b606091505b50509050806101005760405162461bcd60e51b81526020600482015260146024820152732330b4b632b2103a379039b2b7321022ba3432b960611b60448201526064015b60405180910390fd5b5050565b6000826001600160a01b03168260405160006040518083038185875af1925050503d8060008114610151576040519150601f19603f3d011682016040523d82523d6000602084013e610156565b606091505b505090508061019e5760405162461bcd60e51b81526020600482015260146024820152732330b4b632b2103a379039b2b7321022ba3432b960611b60448201526064016100f7565b505050565b80356001600160a01b03811681146101ba57600080fd5b919050565b6000602082840312156101d157600080fd5b6101da826101a3565b9392505050565b600080604083850312156101f457600080fd5b6101fd836101a3565b94602093909301359350505056fea26469706673582212209794dd42547eeb98e714bc34369aded36449d63ab4e3c643fe333336721783a364736f6c63430008130033",
  "linkReferences": {},
  "deployedLinkReferences": {}
}